{
	"data": {
		"bytecode": {
			"linkReferences": {},
			"object": "6080604052348015600e575f80fd5b50610ee08061001c5f395ff3fe608060405260043610610058575f3560e01c806306ead22e1461006157806341e0c4071461009f578063642f9163146100c95780636f9fb98a14610107578063c1bea1db14610131578063e9e30927146101595761005f565b3661005f57005b005b34801561006c575f80fd5b50610087600480360381019061008291906106b1565b610185565b6040516100969392919061075b565b60405180910390f35b3480156100aa575f80fd5b506100b361023f565b6040516100c09190610797565b60405180910390f35b3480156100d4575f80fd5b506100ef60048036038101906100ea91906106b1565b61024a565b6040516100fe9392919061075b565b60405180910390f35b348015610112575f80fd5b5061011b610380565b6040516101289190610797565b60405180910390f35b34801561013c575f80fd5b50610157600480360381019061015291906108dc565b610387565b005b348015610164575f80fd5b5061016d610433565b60405161017c93929190610b02565b60405180910390f35b5f8181548110610193575f80fd5b905f5260205f2090600302015f91509050805f0154908060010180546101b890610b79565b80601f01602080910402602001604051908101604052809291908181526020018280546101e490610b79565b801561022f5780601f106102065761010080835404028352916020019161022f565b820191905f5260205f20905b81548152906001019060200180831161021257829003601f168201915b5050505050908060020154905083565b5f8080549050905090565b5f60605f80805490508410610294576040517f08c379a000000000000000000000000000000000000000000000000000000000815260040161028b90610bf3565b60405180910390fd5b5f8085815481106102a8576102a7610c11565b5b905f5260205f2090600302016040518060600160405290815f82015481526020016001820180546102d890610b79565b80601f016020809104026020016040519081016040528092919081815260200182805461030490610b79565b801561034f5780601f106103265761010080835404028352916020019161034f565b820191905f5260205f20905b81548152906001019060200180831161033257829003601f168201915b505050505081526020016002820154815250509050805f015181602001518260400151935093509350509193909250565b5f47905090565b5f604051806060016040528085815260200184815260200183815250908060018154018082558091505060019003905f5260205f2090600302015f909190919091505f820151815f015560208201518160010190816103e69190610ddb565b506040820151816002015550507ffafb7311fc57ca8a55073f63725e888b4250c799d77ae873970d65ac08c5917a8383836040516104269392919061075b565b60405180910390a1505050565b60608060605f808054905067ffffffffffffffff811115610457576104566107b8565b5b6040519080825280602002602001820160405280156104855781602001602082028036833780820191505090505b5090505f808054905067ffffffffffffffff8111156104a7576104a66107b8565b5b6040519080825280602002602001820160405280156104da57816020015b60608152602001906001900390816104c55790505b5090505f808054905067ffffffffffffffff8111156104fc576104fb6107b8565b5b60405190808252806020026020018201604052801561052a5781602001602082028036833780820191505090505b5090505f5b5f8054905081101561065b575f80828154811061054f5761054e610c11565b5b905f5260205f2090600302019050805f015485838151811061057457610573610c11565b5b60200260200101818152505080600101805461058f90610b79565b80601f01602080910402602001604051908101604052809291908181526020018280546105bb90610b79565b80156106065780601f106105dd57610100808354040283529160200191610606565b820191905f5260205f20905b8154815290600101906020018083116105e957829003601f168201915b505050505084838151811061061e5761061d610c11565b5b6020026020010181905250806002015483838151811061064157610640610c11565b5b60200260200101818152505050808060010191505061052f565b50828282955095509550505050909192565b5f604051905090565b5f80fd5b5f80fd5b5f819050919050565b6106908161067e565b811461069a575f80fd5b50565b5f813590506106ab81610687565b92915050565b5f602082840312156106c6576106c5610676565b5b5f6106d38482850161069d565b91505092915050565b6106e58161067e565b82525050565b5f81519050919050565b5f82825260208201905092915050565b8281835e5f83830152505050565b5f601f19601f8301169050919050565b5f61072d826106eb565b61073781856106f5565b9350610747818560208601610705565b61075081610713565b840191505092915050565b5f60608201905061076e5f8301866106dc565b81810360208301526107808185610723565b905061078f60408301846106dc565b949350505050565b5f6020820190506107aa5f8301846106dc565b92915050565b5f80fd5b5f80fd5b7f4e487b71000000000000000000000000000000000000000000000000000000005f52604160045260245ffd5b6107ee82610713565b810181811067ffffffffffffffff8211171561080d5761080c6107b8565b5b80604052505050565b5f61081f61066d565b905061082b82826107e5565b919050565b5f67ffffffffffffffff82111561084a576108496107b8565b5b61085382610713565b9050602081019050919050565b828183375f83830152505050565b5f61088061087b84610830565b610816565b90508281526020810184848401111561089c5761089b6107b4565b5b6108a7848285610860565b509392505050565b5f82601f8301126108c3576108c26107b0565b5b81356108d384826020860161086e565b91505092915050565b5f805f606084860312156108f3576108f2610676565b5b5f6109008682870161069d565b935050602084013567ffffffffffffffff8111156109215761092061067a565b5b61092d868287016108af565b925050604061093e8682870161069d565b9150509250925092565b5f81519050919050565b5f82825260208201905092915050565b5f819050602082019050919050565b61097a8161067e565b82525050565b5f61098b8383610971565b60208301905092915050565b5f602082019050919050565b5f6109ad82610948565b6109b78185610952565b93506109c283610962565b805f5b838110156109f25781516109d98882610980565b97506109e483610997565b9250506001810190506109c5565b5085935050505092915050565b5f81519050919050565b5f82825260208201905092915050565b5f819050602082019050919050565b5f82825260208201905092915050565b5f610a42826106eb565b610a4c8185610a28565b9350610a5c818560208601610705565b610a6581610713565b840191505092915050565b5f610a7b8383610a38565b905092915050565b5f602082019050919050565b5f610a99826109ff565b610aa38185610a09565b935083602082028501610ab585610a19565b805f5b85811015610af05784840389528151610ad18582610a70565b9450610adc83610a83565b925060208a01995050600181019050610ab8565b50829750879550505050505092915050565b5f6060820190508181035f830152610b1a81866109a3565b90508181036020830152610b2e8185610a8f565b90508181036040830152610b4281846109a3565b9050949350505050565b7f4e487b71000000000000000000000000000000000000000000000000000000005f52602260045260245ffd5b5f6002820490506001821680610b9057607f821691505b602082108103610ba357610ba2610b4c565b5b50919050565b7f496e76616c69642073747564656e7420696e64657800000000000000000000005f82015250565b5f610bdd6015836106f5565b9150610be882610ba9565b602082019050919050565b5f6020820190508181035f830152610c0a81610bd1565b9050919050565b7f4e487b71000000000000000000000000000000000000000000000000000000005f52603260045260245ffd5b5f819050815f5260205f209050919050565b5f6020601f8301049050919050565b5f82821b905092915050565b5f60088302610c9a7fffffffffffffffffffffffffffffffffffffffffffffffffffffffffffffffff82610c5f565b610ca48683610c5f565b95508019841693508086168417925050509392505050565b5f819050919050565b5f610cdf610cda610cd58461067e565b610cbc565b61067e565b9050919050565b5f819050919050565b610cf883610cc5565b610d0c610d0482610ce6565b848454610c6b565b825550505050565b5f90565b610d20610d14565b610d2b818484610cef565b505050565b5b81811015610d4e57610d435f82610d18565b600181019050610d31565b5050565b601f821115610d9357610d6481610c3e565b610d6d84610c50565b81016020851015610d7c578190505b610d90610d8885610c50565b830182610d30565b50505b505050565b5f82821c905092915050565b5f610db35f1984600802610d98565b1980831691505092915050565b5f610dcb8383610da4565b9150826002028217905092915050565b610de4826106eb565b67ffffffffffffffff811115610dfd57610dfc6107b8565b5b610e078254610b79565b610e12828285610d52565b5f60209050601f831160018114610e43575f8415610e31578287015190505b610e3b8582610dc0565b865550610ea2565b601f198416610e5186610c3e565b5f5b82811015610e7857848901518255600182019150602085019450602081019050610e53565b86831015610e955784890151610e91601f891682610da4565b8355505b6001600288020188555050505b50505050505056fea2646970667358221220e9ed994e9e67a2b9580ce62f2410e3ef9ed333c75b6bb49a8a1f4c87e1208b1c64736f6c634300081a0033",
			"opcodes": "PUSH1 0x80 PUSH1 0x40 MSTORE CALLVALUE DUP1 ISZERO PUSH1 0xE JUMPI PUSH0 DUP1 REVERT JUMPDEST POP PUSH2 0xEE0 DUP1 PUSH2 0x1C PUSH0 CODECOPY PUSH0 RETURN INVALID PUSH1 0x80 PUSH1 0x40 MSTORE PUSH1 0x4 CALLDATASIZE LT PUSH2 0x58 JUMPI PUSH0 CALLDATALOAD PUSH1 0xE0 SHR DUP1 PUSH4 0x6EAD22E EQ PUSH2 0x61 JUMPI DUP1 PUSH4 0x41E0C407 EQ PUSH2 0x9F JUMPI DUP1 PUSH4 0x642F9163 EQ PUSH2 0xC9 JUMPI DUP1 PUSH4 0x6F9FB98A EQ PUSH2 0x107 JUMPI DUP1 PUSH4 0xC1BEA1DB EQ PUSH2 0x131 JUMPI DUP1 PUSH4 0xE9E30927 EQ PUSH2 0x159 JUMPI PUSH2 0x5F JUMP JUMPDEST CALLDATASIZE PUSH2 0x5F JUMPI STOP JUMPDEST STOP JUMPDEST CALLVALUE DUP1 ISZERO PUSH2 0x6C JUMPI PUSH0 DUP1 REVERT JUMPDEST POP PUSH2 0x87 PUSH1 0x4 DUP1 CALLDATASIZE SUB DUP2 ADD SWAP1 PUSH2 0x82 SWAP2 SWAP1 PUSH2 0x6B1 JUMP JUMPDEST PUSH2 0x185 JUMP JUMPDEST PUSH1 0x40 MLOAD PUSH2 0x96 SWAP4 SWAP3 SWAP2 SWAP1 PUSH2 0x75B JUMP JUMPDEST PUSH1 0x40 MLOAD DUP1 SWAP2 SUB SWAP1 RETURN JUMPDEST CALLVALUE DUP1 ISZERO PUSH2 0xAA JUMPI PUSH0 DUP1 REVERT JUMPDEST POP PUSH2 0xB3 PUSH2 0x23F JUMP JUMPDEST PUSH1 0x40 MLOAD PUSH2 0xC0 SWAP2 SWAP1 PUSH2 0x797 JUMP JUMPDEST PUSH1 0x40 MLOAD DUP1 SWAP2 SUB SWAP1 RETURN JUMPDEST CALLVALUE DUP1 ISZERO PUSH2 0xD4 JUMPI PUSH0 DUP1 REVERT JUMPDEST POP PUSH2 0xEF PUSH1 0x4 DUP1 CALLDATASIZE SUB DUP2 ADD SWAP1 PUSH2 0xEA SWAP2 SWAP1 PUSH2 0x6B1 JUMP JUMPDEST PUSH2 0x24A JUMP JUMPDEST PUSH1 0x40 MLOAD PUSH2 0xFE SWAP4 SWAP3 SWAP2 SWAP1 PUSH2 0x75B JUMP JUMPDEST PUSH1 0x40 MLOAD DUP1 SWAP2 SUB SWAP1 RETURN JUMPDEST CALLVALUE DUP1 ISZERO PUSH2 0x112 JUMPI PUSH0 DUP1 REVERT JUMPDEST POP PUSH2 0x11B PUSH2 0x380 JUMP JUMPDEST PUSH1 0x40 MLOAD PUSH2 0x128 SWAP2 SWAP1 PUSH2 0x797 JUMP JUMPDEST PUSH1 0x40 MLOAD DUP1 SWAP2 SUB SWAP1 RETURN JUMPDEST CALLVALUE DUP1 ISZERO PUSH2 0x13C JUMPI PUSH0 DUP1 REVERT JUMPDEST POP PUSH2 0x157 PUSH1 0x4 DUP1 CALLDATASIZE SUB DUP2 ADD SWAP1 PUSH2 0x152 SWAP2 SWAP1 PUSH2 0x8DC JUMP JUMPDEST PUSH2 0x387 JUMP JUMPDEST STOP JUMPDEST CALLVALUE DUP1 ISZERO PUSH2 0x164 JUMPI PUSH0 DUP1 REVERT JUMPDEST POP PUSH2 0x16D PUSH2 0x433 JUMP JUMPDEST PUSH1 0x40 MLOAD PUSH2 0x17C SWAP4 SWAP3 SWAP2 SWAP1 PUSH2 0xB02 JUMP JUMPDEST PUSH1 0x40 MLOAD DUP1 SWAP2 SUB SWAP1 RETURN JUMPDEST PUSH0 DUP2 DUP2 SLOAD DUP2 LT PUSH2 0x193 JUMPI PUSH0 DUP1 REVERT JUMPDEST SWAP1 PUSH0 MSTORE PUSH1 0x20 PUSH0 KECCAK256 SWAP1 PUSH1 0x3 MUL ADD PUSH0 SWAP2 POP SWAP1 POP DUP1 PUSH0 ADD SLOAD SWAP1 DUP1 PUSH1 0x1 ADD DUP1 SLOAD PUSH2 0x1B8 SWAP1 PUSH2 0xB79 JUMP JUMPDEST DUP1 PUSH1 0x1F ADD PUSH1 0x20 DUP1 SWAP2 DIV MUL PUSH1 0x20 ADD PUSH1 0x40 MLOAD SWAP1 DUP2 ADD PUSH1 0x40 MSTORE DUP1 SWAP3 SWAP2 SWAP1 DUP2 DUP2 MSTORE PUSH1 0x20 ADD DUP3 DUP1 SLOAD PUSH2 0x1E4 SWAP1 PUSH2 0xB79 JUMP JUMPDEST DUP1 ISZERO PUSH2 0x22F JUMPI DUP1 PUSH1 0x1F LT PUSH2 0x206 JUMPI PUSH2 0x100 DUP1 DUP4 SLOAD DIV MUL DUP4 MSTORE SWAP2 PUSH1 0x20 ADD SWAP2 PUSH2 0x22F JUMP JUMPDEST DUP3 ADD SWAP2 SWAP1 PUSH0 MSTORE PUSH1 0x20 PUSH0 KECCAK256 SWAP1 JUMPDEST DUP2 SLOAD DUP2 MSTORE SWAP1 PUSH1 0x1 ADD SWAP1 PUSH1 0x20 ADD DUP1 DUP4 GT PUSH2 0x212 JUMPI DUP3 SWAP1 SUB PUSH1 0x1F AND DUP3 ADD SWAP2 JUMPDEST POP POP POP POP POP SWAP1 DUP1 PUSH1 0x2 ADD SLOAD SWAP1 POP DUP4 JUMP JUMPDEST PUSH0 DUP1 DUP1 SLOAD SWAP1 POP SWAP1 POP SWAP1 JUMP JUMPDEST PUSH0 PUSH1 0x60 PUSH0 DUP1 DUP1 SLOAD SWAP1 POP DUP5 LT PUSH2 0x294 JUMPI PUSH1 0x40 MLOAD PUSH32 0x8C379A000000000000000000000000000000000000000000000000000000000 DUP2 MSTORE PUSH1 0x4 ADD PUSH2 0x28B SWAP1 PUSH2 0xBF3 JUMP JUMPDEST PUSH1 0x40 MLOAD DUP1 SWAP2 SUB SWAP1 REVERT JUMPDEST PUSH0 DUP1 DUP6 DUP2 SLOAD DUP2 LT PUSH2 0x2A8 JUMPI PUSH2 0x2A7 PUSH2 0xC11 JUMP JUMPDEST JUMPDEST SWAP1 PUSH0 MSTORE PUSH1 0x20 PUSH0 KECCAK256 SWAP1 PUSH1 0x3 MUL ADD PUSH1 0x40 MLOAD DUP1 PUSH1 0x60 ADD PUSH1 0x40 MSTORE SWAP1 DUP2 PUSH0 DUP3 ADD SLOAD DUP2 MSTORE PUSH1 0x20 ADD PUSH1 0x1 DUP3 ADD DUP1 SLOAD PUSH2 0x2D8 SWAP1 PUSH2 0xB79 JUMP JUMPDEST DUP1 PUSH1 0x1F ADD PUSH1 0x20 DUP1 SWAP2 DIV MUL PUSH1 0x20 ADD PUSH1 0x40 MLOAD SWAP1 DUP2 ADD PUSH1 0x40 MSTORE DUP1 SWAP3 SWAP2 SWAP1 DUP2 DUP2 MSTORE PUSH1 0x20 ADD DUP3 DUP1 SLOAD PUSH2 0x304 SWAP1 PUSH2 0xB79 JUMP JUMPDEST DUP1 ISZERO PUSH2 0x34F JUMPI DUP1 PUSH1 0x1F LT PUSH2 0x326 JUMPI PUSH2 0x100 DUP1 DUP4 SLOAD DIV MUL DUP4 MSTORE SWAP2 PUSH1 0x20 ADD SWAP2 PUSH2 0x34F JUMP JUMPDEST DUP3 ADD SWAP2 SWAP1 PUSH0 MSTORE PUSH1 0x20 PUSH0 KECCAK256 SWAP1 JUMPDEST DUP2 SLOAD DUP2 MSTORE SWAP1 PUSH1 0x1 ADD SWAP1 PUSH1 0x20 ADD DUP1 DUP4 GT PUSH2 0x332 JUMPI DUP3 SWAP1 SUB PUSH1 0x1F AND DUP3 ADD SWAP2 JUMPDEST POP POP POP POP POP DUP2 MSTORE PUSH1 0x20 ADD PUSH1 0x2 DUP3 ADD SLOAD DUP2 MSTORE POP POP SWAP1 POP DUP1 PUSH0 ADD MLOAD DUP2 PUSH1 0x20 ADD MLOAD DUP3 PUSH1 0x40 ADD MLOAD SWAP4 POP SWAP4 POP SWAP4 POP POP SWAP2 SWAP4 SWAP1 SWAP3 POP JUMP JUMPDEST PUSH0 SELFBALANCE SWAP1 POP SWAP1 JUMP JUMPDEST PUSH0 PUSH1 0x40 MLOAD DUP1 PUSH1 0x60 ADD PUSH1 0x40 MSTORE DUP1 DUP6 DUP2 MSTORE PUSH1 0x20 ADD DUP5 DUP2 MSTORE PUSH1 0x20 ADD DUP4 DUP2 MSTORE POP SWAP1 DUP1 PUSH1 0x1 DUP2 SLOAD ADD DUP1 DUP3 SSTORE DUP1 SWAP2 POP POP PUSH1 0x1 SWAP1 SUB SWAP1 PUSH0 MSTORE PUSH1 0x20 PUSH0 KECCAK256 SWAP1 PUSH1 0x3 MUL ADD PUSH0 SWAP1 SWAP2 SWAP1 SWAP2 SWAP1 SWAP2 POP PUSH0 DUP3 ADD MLOAD DUP2 PUSH0 ADD SSTORE PUSH1 0x20 DUP3 ADD MLOAD DUP2 PUSH1 0x1 ADD SWAP1 DUP2 PUSH2 0x3E6 SWAP2 SWAP1 PUSH2 0xDDB JUMP JUMPDEST POP PUSH1 0x40 DUP3 ADD MLOAD DUP2 PUSH1 0x2 ADD SSTORE POP POP PUSH32 0xFAFB7311FC57CA8A55073F63725E888B4250C799D77AE873970D65AC08C5917A DUP4 DUP4 DUP4 PUSH1 0x40 MLOAD PUSH2 0x426 SWAP4 SWAP3 SWAP2 SWAP1 PUSH2 0x75B JUMP JUMPDEST PUSH1 0x40 MLOAD DUP1 SWAP2 SUB SWAP1 LOG1 POP POP POP JUMP JUMPDEST PUSH1 0x60 DUP1 PUSH1 0x60 PUSH0 DUP1 DUP1 SLOAD SWAP1 POP PUSH8 0xFFFFFFFFFFFFFFFF DUP2 GT ISZERO PUSH2 0x457 JUMPI PUSH2 0x456 PUSH2 0x7B8 JUMP JUMPDEST JUMPDEST PUSH1 0x40 MLOAD SWAP1 DUP1 DUP3 MSTORE DUP1 PUSH1 0x20 MUL PUSH1 0x20 ADD DUP3 ADD PUSH1 0x40 MSTORE DUP1 ISZERO PUSH2 0x485 JUMPI DUP2 PUSH1 0x20 ADD PUSH1 0x20 DUP3 MUL DUP1 CALLDATASIZE DUP4 CALLDATACOPY DUP1 DUP3 ADD SWAP2 POP POP SWAP1 POP JUMPDEST POP SWAP1 POP PUSH0 DUP1 DUP1 SLOAD SWAP1 POP PUSH8 0xFFFFFFFFFFFFFFFF DUP2 GT ISZERO PUSH2 0x4A7 JUMPI PUSH2 0x4A6 PUSH2 0x7B8 JUMP JUMPDEST JUMPDEST PUSH1 0x40 MLOAD SWAP1 DUP1 DUP3 MSTORE DUP1 PUSH1 0x20 MUL PUSH1 0x20 ADD DUP3 ADD PUSH1 0x40 MSTORE DUP1 ISZERO PUSH2 0x4DA JUMPI DUP2 PUSH1 0x20 ADD JUMPDEST PUSH1 0x60 DUP2 MSTORE PUSH1 0x20 ADD SWAP1 PUSH1 0x1 SWAP1 SUB SWAP1 DUP2 PUSH2 0x4C5 JUMPI SWAP1 POP JUMPDEST POP SWAP1 POP PUSH0 DUP1 DUP1 SLOAD SWAP1 POP PUSH8 0xFFFFFFFFFFFFFFFF DUP2 GT ISZERO PUSH2 0x4FC JUMPI PUSH2 0x4FB PUSH2 0x7B8 JUMP JUMPDEST JUMPDEST PUSH1 0x40 MLOAD SWAP1 DUP1 DUP3 MSTORE DUP1 PUSH1 0x20 MUL PUSH1 0x20 ADD DUP3 ADD PUSH1 0x40 MSTORE DUP1 ISZERO PUSH2 0x52A JUMPI DUP2 PUSH1 0x20 ADD PUSH1 0x20 DUP3 MUL DUP1 CALLDATASIZE DUP4 CALLDATACOPY DUP1 DUP3 ADD SWAP2 POP POP SWAP1 POP JUMPDEST POP SWAP1 POP PUSH0 JUMPDEST PUSH0 DUP1 SLOAD SWAP1 POP DUP2 LT ISZERO PUSH2 0x65B JUMPI PUSH0 DUP1 DUP3 DUP2 SLOAD DUP2 LT PUSH2 0x54F JUMPI PUSH2 0x54E PUSH2 0xC11 JUMP JUMPDEST JUMPDEST SWAP1 PUSH0 MSTORE PUSH1 0x20 PUSH0 KECCAK256 SWAP1 PUSH1 0x3 MUL ADD SWAP1 POP DUP1 PUSH0 ADD SLOAD DUP6 DUP4 DUP2 MLOAD DUP2 LT PUSH2 0x574 JUMPI PUSH2 0x573 PUSH2 0xC11 JUMP JUMPDEST JUMPDEST PUSH1 0x20 MUL PUSH1 0x20 ADD ADD DUP2 DUP2 MSTORE POP POP DUP1 PUSH1 0x1 ADD DUP1 SLOAD PUSH2 0x58F SWAP1 PUSH2 0xB79 JUMP JUMPDEST DUP1 PUSH1 0x1F ADD PUSH1 0x20 DUP1 SWAP2 DIV MUL PUSH1 0x20 ADD PUSH1 0x40 MLOAD SWAP1 DUP2 ADD PUSH1 0x40 MSTORE DUP1 SWAP3 SWAP2 SWAP1 DUP2 DUP2 MSTORE PUSH1 0x20 ADD DUP3 DUP1 SLOAD PUSH2 0x5BB SWAP1 PUSH2 0xB79 JUMP JUMPDEST DUP1 ISZERO PUSH2 0x606 JUMPI DUP1 PUSH1 0x1F LT PUSH2 0x5DD JUMPI PUSH2 0x100 DUP1 DUP4 SLOAD DIV MUL DUP4 MSTORE SWAP2 PUSH1 0x20 ADD SWAP2 PUSH2 0x606 JUMP JUMPDEST DUP3 ADD SWAP2 SWAP1 PUSH0 MSTORE PUSH1 0x20 PUSH0 KECCAK256 SWAP1 JUMPDEST DUP2 SLOAD DUP2 MSTORE SWAP1 PUSH1 0x1 ADD SWAP1 PUSH1 0x20 ADD DUP1 DUP4 GT PUSH2 0x5E9 JUMPI DUP3 SWAP1 SUB PUSH1 0x1F AND DUP3 ADD SWAP2 JUMPDEST POP POP POP POP POP DUP5 DUP4 DUP2 MLOAD DUP2 LT PUSH2 0x61E JUMPI PUSH2 0x61D PUSH2 0xC11 JUMP JUMPDEST JUMPDEST PUSH1 0x20 MUL PUSH1 0x20 ADD ADD DUP2 SWAP1 MSTORE POP DUP1 PUSH1 0x2 ADD SLOAD DUP4 DUP4 DUP2 MLOAD DUP2 LT PUSH2 0x641 JUMPI PUSH2 0x640 PUSH2 0xC11 JUMP JUMPDEST JUMPDEST PUSH1 0x20 MUL PUSH1 0x20 ADD ADD DUP2 DUP2 MSTORE POP POP POP DUP1 DUP1 PUSH1 0x1 ADD SWAP2 POP POP PUSH2 0x52F JUMP JUMPDEST POP DUP3 DUP3 DUP3 SWAP6 POP SWAP6 POP SWAP6 POP POP POP POP SWAP1 SWAP2 SWAP3 JUMP JUMPDEST PUSH0 PUSH1 0x40 MLOAD SWAP1 POP SWAP1 JUMP JUMPDEST PUSH0 DUP1 REVERT JUMPDEST PUSH0 DUP1 REVERT JUMPDEST PUSH0 DUP2 SWAP1 POP SWAP2 SWAP1 POP JUMP JUMPDEST PUSH2 0x690 DUP2 PUSH2 0x67E JUMP JUMPDEST DUP2 EQ PUSH2 0x69A JUMPI PUSH0 DUP1 REVERT JUMPDEST POP JUMP JUMPDEST PUSH0 DUP2 CALLDATALOAD SWAP1 POP PUSH2 0x6AB DUP2 PUSH2 0x687 JUMP JUMPDEST SWAP3 SWAP2 POP POP JUMP JUMPDEST PUSH0 PUSH1 0x20 DUP3 DUP5 SUB SLT ISZERO PUSH2 0x6C6 JUMPI PUSH2 0x6C5 PUSH2 0x676 JUMP JUMPDEST JUMPDEST PUSH0 PUSH2 0x6D3 DUP5 DUP3 DUP6 ADD PUSH2 0x69D JUMP JUMPDEST SWAP2 POP POP SWAP3 SWAP2 POP POP JUMP JUMPDEST PUSH2 0x6E5 DUP2 PUSH2 0x67E JUMP JUMPDEST DUP3 MSTORE POP POP JUMP JUMPDEST PUSH0 DUP2 MLOAD SWAP1 POP SWAP2 SWAP1 POP JUMP JUMPDEST PUSH0 DUP3 DUP3 MSTORE PUSH1 0x20 DUP3 ADD SWAP1 POP SWAP3 SWAP2 POP POP JUMP JUMPDEST DUP3 DUP2 DUP4 MCOPY PUSH0 DUP4 DUP4 ADD MSTORE POP POP POP JUMP JUMPDEST PUSH0 PUSH1 0x1F NOT PUSH1 0x1F DUP4 ADD AND SWAP1 POP SWAP2 SWAP1 POP JUMP JUMPDEST PUSH0 PUSH2 0x72D DUP3 PUSH2 0x6EB JUMP JUMPDEST PUSH2 0x737 DUP2 DUP6 PUSH2 0x6F5 JUMP JUMPDEST SWAP4 POP PUSH2 0x747 DUP2 DUP6 PUSH1 0x20 DUP7 ADD PUSH2 0x705 JUMP JUMPDEST PUSH2 0x750 DUP2 PUSH2 0x713 JUMP JUMPDEST DUP5 ADD SWAP2 POP POP SWAP3 SWAP2 POP POP JUMP JUMPDEST PUSH0 PUSH1 0x60 DUP3 ADD SWAP1 POP PUSH2 0x76E PUSH0 DUP4 ADD DUP7 PUSH2 0x6DC JUMP JUMPDEST DUP2 DUP2 SUB PUSH1 0x20 DUP4 ADD MSTORE PUSH2 0x780 DUP2 DUP6 PUSH2 0x723 JUMP JUMPDEST SWAP1 POP PUSH2 0x78F PUSH1 0x40 DUP4 ADD DUP5 PUSH2 0x6DC JUMP JUMPDEST SWAP5 SWAP4 POP POP POP POP JUMP JUMPDEST PUSH0 PUSH1 0x20 DUP3 ADD SWAP1 POP PUSH2 0x7AA PUSH0 DUP4 ADD DUP5 PUSH2 0x6DC JUMP JUMPDEST SWAP3 SWAP2 POP POP JUMP JUMPDEST PUSH0 DUP1 REVERT JUMPDEST PUSH0 DUP1 REVERT JUMPDEST PUSH32 0x4E487B7100000000000000000000000000000000000000000000000000000000 PUSH0 MSTORE PUSH1 0x41 PUSH1 0x4 MSTORE PUSH1 0x24 PUSH0 REVERT JUMPDEST PUSH2 0x7EE DUP3 PUSH2 0x713 JUMP JUMPDEST DUP2 ADD DUP2 DUP2 LT PUSH8 0xFFFFFFFFFFFFFFFF DUP3 GT OR ISZERO PUSH2 0x80D JUMPI PUSH2 0x80C PUSH2 0x7B8 JUMP JUMPDEST JUMPDEST DUP1 PUSH1 0x40 MSTORE POP POP POP JUMP JUMPDEST PUSH0 PUSH2 0x81F PUSH2 0x66D JUMP JUMPDEST SWAP1 POP PUSH2 0x82B DUP3 DUP3 PUSH2 0x7E5 JUMP JUMPDEST SWAP2 SWAP1 POP JUMP JUMPDEST PUSH0 PUSH8 0xFFFFFFFFFFFFFFFF DUP3 GT ISZERO PUSH2 0x84A JUMPI PUSH2 0x849 PUSH2 0x7B8 JUMP JUMPDEST JUMPDEST PUSH2 0x853 DUP3 PUSH2 0x713 JUMP JUMPDEST SWAP1 POP PUSH1 0x20 DUP2 ADD SWAP1 POP SWAP2 SWAP1 POP JUMP JUMPDEST DUP3 DUP2 DUP4 CALLDATACOPY PUSH0 DUP4 DUP4 ADD MSTORE POP POP POP JUMP JUMPDEST PUSH0 PUSH2 0x880 PUSH2 0x87B DUP5 PUSH2 0x830 JUMP JUMPDEST PUSH2 0x816 JUMP JUMPDEST SWAP1 POP DUP3 DUP2 MSTORE PUSH1 0x20 DUP2 ADD DUP5 DUP5 DUP5 ADD GT ISZERO PUSH2 0x89C JUMPI PUSH2 0x89B PUSH2 0x7B4 JUMP JUMPDEST JUMPDEST PUSH2 0x8A7 DUP5 DUP3 DUP6 PUSH2 0x860 JUMP JUMPDEST POP SWAP4 SWAP3 POP POP POP JUMP JUMPDEST PUSH0 DUP3 PUSH1 0x1F DUP4 ADD SLT PUSH2 0x8C3 JUMPI PUSH2 0x8C2 PUSH2 0x7B0 JUMP JUMPDEST JUMPDEST DUP2 CALLDATALOAD PUSH2 0x8D3 DUP5 DUP3 PUSH1 0x20 DUP7 ADD PUSH2 0x86E JUMP JUMPDEST SWAP2 POP POP SWAP3 SWAP2 POP POP JUMP JUMPDEST PUSH0 DUP1 PUSH0 PUSH1 0x60 DUP5 DUP7 SUB SLT ISZERO PUSH2 0x8F3 JUMPI PUSH2 0x8F2 PUSH2 0x676 JUMP JUMPDEST JUMPDEST PUSH0 PUSH2 0x900 DUP7 DUP3 DUP8 ADD PUSH2 0x69D JUMP JUMPDEST SWAP4 POP POP PUSH1 0x20 DUP5 ADD CALLDATALOAD PUSH8 0xFFFFFFFFFFFFFFFF DUP2 GT ISZERO PUSH2 0x921 JUMPI PUSH2 0x920 PUSH2 0x67A JUMP JUMPDEST JUMPDEST PUSH2 0x92D DUP7 DUP3 DUP8 ADD PUSH2 0x8AF JUMP JUMPDEST SWAP3 POP POP PUSH1 0x40 PUSH2 0x93E DUP7 DUP3 DUP8 ADD PUSH2 0x69D JUMP JUMPDEST SWAP2 POP POP SWAP3 POP SWAP3 POP SWAP3 JUMP JUMPDEST PUSH0 DUP2 MLOAD SWAP1 POP SWAP2 SWAP1 POP JUMP JUMPDEST PUSH0 DUP3 DUP3 MSTORE PUSH1 0x20 DUP3 ADD SWAP1 POP SWAP3 SWAP2 POP POP JUMP JUMPDEST PUSH0 DUP2 SWAP1 POP PUSH1 0x20 DUP3 ADD SWAP1 POP SWAP2 SWAP1 POP JUMP JUMPDEST PUSH2 0x97A DUP2 PUSH2 0x67E JUMP JUMPDEST DUP3 MSTORE POP POP JUMP JUMPDEST PUSH0 PUSH2 0x98B DUP4 DUP4 PUSH2 0x971 JUMP JUMPDEST PUSH1 0x20 DUP4 ADD SWAP1 POP SWAP3 SWAP2 POP POP JUMP JUMPDEST PUSH0 PUSH1 0x20 DUP3 ADD SWAP1 POP SWAP2 SWAP1 POP JUMP JUMPDEST PUSH0 PUSH2 0x9AD DUP3 PUSH2 0x948 JUMP JUMPDEST PUSH2 0x9B7 DUP2 DUP6 PUSH2 0x952 JUMP JUMPDEST SWAP4 POP PUSH2 0x9C2 DUP4 PUSH2 0x962 JUMP JUMPDEST DUP1 PUSH0 JUMPDEST DUP4 DUP2 LT ISZERO PUSH2 0x9F2 JUMPI DUP2 MLOAD PUSH2 0x9D9 DUP9 DUP3 PUSH2 0x980 JUMP JUMPDEST SWAP8 POP PUSH2 0x9E4 DUP4 PUSH2 0x997 JUMP JUMPDEST SWAP3 POP POP PUSH1 0x1 DUP2 ADD SWAP1 POP PUSH2 0x9C5 JUMP JUMPDEST POP DUP6 SWAP4 POP POP POP POP SWAP3 SWAP2 POP POP JUMP JUMPDEST PUSH0 DUP2 MLOAD SWAP1 POP SWAP2 SWAP1 POP JUMP JUMPDEST PUSH0 DUP3 DUP3 MSTORE PUSH1 0x20 DUP3 ADD SWAP1 POP SWAP3 SWAP2 POP POP JUMP JUMPDEST PUSH0 DUP2 SWAP1 POP PUSH1 0x20 DUP3 ADD SWAP1 POP SWAP2 SWAP1 POP JUMP JUMPDEST PUSH0 DUP3 DUP3 MSTORE PUSH1 0x20 DUP3 ADD SWAP1 POP SWAP3 SWAP2 POP POP JUMP JUMPDEST PUSH0 PUSH2 0xA42 DUP3 PUSH2 0x6EB JUMP JUMPDEST PUSH2 0xA4C DUP2 DUP6 PUSH2 0xA28 JUMP JUMPDEST SWAP4 POP PUSH2 0xA5C DUP2 DUP6 PUSH1 0x20 DUP7 ADD PUSH2 0x705 JUMP JUMPDEST PUSH2 0xA65 DUP2 PUSH2 0x713 JUMP JUMPDEST DUP5 ADD SWAP2 POP POP SWAP3 SWAP2 POP POP JUMP JUMPDEST PUSH0 PUSH2 0xA7B DUP4 DUP4 PUSH2 0xA38 JUMP JUMPDEST SWAP1 POP SWAP3 SWAP2 POP POP JUMP JUMPDEST PUSH0 PUSH1 0x20 DUP3 ADD SWAP1 POP SWAP2 SWAP1 POP JUMP JUMPDEST PUSH0 PUSH2 0xA99 DUP3 PUSH2 0x9FF JUMP JUMPDEST PUSH2 0xAA3 DUP2 DUP6 PUSH2 0xA09 JUMP JUMPDEST SWAP4 POP DUP4 PUSH1 0x20 DUP3 MUL DUP6 ADD PUSH2 0xAB5 DUP6 PUSH2 0xA19 JUMP JUMPDEST DUP1 PUSH0 JUMPDEST DUP6 DUP2 LT ISZERO PUSH2 0xAF0 JUMPI DUP5 DUP5 SUB DUP10 MSTORE DUP2 MLOAD PUSH2 0xAD1 DUP6 DUP3 PUSH2 0xA70 JUMP JUMPDEST SWAP5 POP PUSH2 0xADC DUP4 PUSH2 0xA83 JUMP JUMPDEST SWAP3 POP PUSH1 0x20 DUP11 ADD SWAP10 POP POP PUSH1 0x1 DUP2 ADD SWAP1 POP PUSH2 0xAB8 JUMP JUMPDEST POP DUP3 SWAP8 POP DUP8 SWAP6 POP POP POP POP POP POP SWAP3 SWAP2 POP POP JUMP JUMPDEST PUSH0 PUSH1 0x60 DUP3 ADD SWAP1 POP DUP2 DUP2 SUB PUSH0 DUP4 ADD MSTORE PUSH2 0xB1A DUP2 DUP7 PUSH2 0x9A3 JUMP JUMPDEST SWAP1 POP DUP2 DUP2 SUB PUSH1 0x20 DUP4 ADD MSTORE PUSH2 0xB2E DUP2 DUP6 PUSH2 0xA8F JUMP JUMPDEST SWAP1 POP DUP2 DUP2 SUB PUSH1 0x40 DUP4 ADD MSTORE PUSH2 0xB42 DUP2 DUP5 PUSH2 0x9A3 JUMP JUMPDEST SWAP1 POP SWAP5 SWAP4 POP POP POP POP JUMP JUMPDEST PUSH32 0x4E487B7100000000000000000000000000000000000000000000000000000000 PUSH0 MSTORE PUSH1 0x22 PUSH1 0x4 MSTORE PUSH1 0x24 PUSH0 REVERT JUMPDEST PUSH0 PUSH1 0x2 DUP3 DIV SWAP1 POP PUSH1 0x1 DUP3 AND DUP1 PUSH2 0xB90 JUMPI PUSH1 0x7F DUP3 AND SWAP2 POP JUMPDEST PUSH1 0x20 DUP3 LT DUP2 SUB PUSH2 0xBA3 JUMPI PUSH2 0xBA2 PUSH2 0xB4C JUMP JUMPDEST JUMPDEST POP SWAP2 SWAP1 POP JUMP JUMPDEST PUSH32 0x496E76616C69642073747564656E7420696E6465780000000000000000000000 PUSH0 DUP3 ADD MSTORE POP JUMP JUMPDEST PUSH0 PUSH2 0xBDD PUSH1 0x15 DUP4 PUSH2 0x6F5 JUMP JUMPDEST SWAP2 POP PUSH2 0xBE8 DUP3 PUSH2 0xBA9 JUMP JUMPDEST PUSH1 0x20 DUP3 ADD SWAP1 POP SWAP2 SWAP1 POP JUMP JUMPDEST PUSH0 PUSH1 0x20 DUP3 ADD SWAP1 POP DUP2 DUP2 SUB PUSH0 DUP4 ADD MSTORE PUSH2 0xC0A DUP2 PUSH2 0xBD1 JUMP JUMPDEST SWAP1 POP SWAP2 SWAP1 POP JUMP JUMPDEST PUSH32 0x4E487B7100000000000000000000000000000000000000000000000000000000 PUSH0 MSTORE PUSH1 0x32 PUSH1 0x4 MSTORE PUSH1 0x24 PUSH0 REVERT JUMPDEST PUSH0 DUP2 SWAP1 POP DUP2 PUSH0 MSTORE PUSH1 0x20 PUSH0 KECCAK256 SWAP1 POP SWAP2 SWAP1 POP JUMP JUMPDEST PUSH0 PUSH1 0x20 PUSH1 0x1F DUP4 ADD DIV SWAP1 POP SWAP2 SWAP1 POP JUMP JUMPDEST PUSH0 DUP3 DUP3 SHL SWAP1 POP SWAP3 SWAP2 POP POP JUMP JUMPDEST PUSH0 PUSH1 0x8 DUP4 MUL PUSH2 0xC9A PUSH32 0xFFFFFFFFFFFFFFFFFFFFFFFFFFFFFFFFFFFFFFFFFFFFFFFFFFFFFFFFFFFFFFFF DUP3 PUSH2 0xC5F JUMP JUMPDEST PUSH2 0xCA4 DUP7 DUP4 PUSH2 0xC5F JUMP JUMPDEST SWAP6 POP DUP1 NOT DUP5 AND SWAP4 POP DUP1 DUP7 AND DUP5 OR SWAP3 POP POP POP SWAP4 SWAP3 POP POP POP JUMP JUMPDEST PUSH0 DUP2 SWAP1 POP SWAP2 SWAP1 POP JUMP JUMPDEST PUSH0 PUSH2 0xCDF PUSH2 0xCDA PUSH2 0xCD5 DUP5 PUSH2 0x67E JUMP JUMPDEST PUSH2 0xCBC JUMP JUMPDEST PUSH2 0x67E JUMP JUMPDEST SWAP1 POP SWAP2 SWAP1 POP JUMP JUMPDEST PUSH0 DUP2 SWAP1 POP SWAP2 SWAP1 POP JUMP JUMPDEST PUSH2 0xCF8 DUP4 PUSH2 0xCC5 JUMP JUMPDEST PUSH2 0xD0C PUSH2 0xD04 DUP3 PUSH2 0xCE6 JUMP JUMPDEST DUP5 DUP5 SLOAD PUSH2 0xC6B JUMP JUMPDEST DUP3 SSTORE POP POP POP POP JUMP JUMPDEST PUSH0 SWAP1 JUMP JUMPDEST PUSH2 0xD20 PUSH2 0xD14 JUMP JUMPDEST PUSH2 0xD2B DUP2 DUP5 DUP5 PUSH2 0xCEF JUMP JUMPDEST POP POP POP JUMP JUMPDEST JUMPDEST DUP2 DUP2 LT ISZERO PUSH2 0xD4E JUMPI PUSH2 0xD43 PUSH0 DUP3 PUSH2 0xD18 JUMP JUMPDEST PUSH1 0x1 DUP2 ADD SWAP1 POP PUSH2 0xD31 JUMP JUMPDEST POP POP JUMP JUMPDEST PUSH1 0x1F DUP3 GT ISZERO PUSH2 0xD93 JUMPI PUSH2 0xD64 DUP2 PUSH2 0xC3E JUMP JUMPDEST PUSH2 0xD6D DUP5 PUSH2 0xC50 JUMP JUMPDEST DUP2 ADD PUSH1 0x20 DUP6 LT ISZERO PUSH2 0xD7C JUMPI DUP2 SWAP1 POP JUMPDEST PUSH2 0xD90 PUSH2 0xD88 DUP6 PUSH2 0xC50 JUMP JUMPDEST DUP4 ADD DUP3 PUSH2 0xD30 JUMP JUMPDEST POP POP JUMPDEST POP POP POP JUMP JUMPDEST PUSH0 DUP3 DUP3 SHR SWAP1 POP SWAP3 SWAP2 POP POP JUMP JUMPDEST PUSH0 PUSH2 0xDB3 PUSH0 NOT DUP5 PUSH1 0x8 MUL PUSH2 0xD98 JUMP JUMPDEST NOT DUP1 DUP4 AND SWAP2 POP POP SWAP3 SWAP2 POP POP JUMP JUMPDEST PUSH0 PUSH2 0xDCB DUP4 DUP4 PUSH2 0xDA4 JUMP JUMPDEST SWAP2 POP DUP3 PUSH1 0x2 MUL DUP3 OR SWAP1 POP SWAP3 SWAP2 POP POP JUMP JUMPDEST PUSH2 0xDE4 DUP3 PUSH2 0x6EB JUMP JUMPDEST PUSH8 0xFFFFFFFFFFFFFFFF DUP2 GT ISZERO PUSH2 0xDFD JUMPI PUSH2 0xDFC PUSH2 0x7B8 JUMP JUMPDEST JUMPDEST PUSH2 0xE07 DUP3 SLOAD PUSH2 0xB79 JUMP JUMPDEST PUSH2 0xE12 DUP3 DUP3 DUP6 PUSH2 0xD52 JUMP JUMPDEST PUSH0 PUSH1 0x20 SWAP1 POP PUSH1 0x1F DUP4 GT PUSH1 0x1 DUP2 EQ PUSH2 0xE43 JUMPI PUSH0 DUP5 ISZERO PUSH2 0xE31 JUMPI DUP3 DUP8 ADD MLOAD SWAP1 POP JUMPDEST PUSH2 0xE3B DUP6 DUP3 PUSH2 0xDC0 JUMP JUMPDEST DUP7 SSTORE POP PUSH2 0xEA2 JUMP JUMPDEST PUSH1 0x1F NOT DUP5 AND PUSH2 0xE51 DUP7 PUSH2 0xC3E JUMP JUMPDEST PUSH0 JUMPDEST DUP3 DUP2 LT ISZERO PUSH2 0xE78 JUMPI DUP5 DUP10 ADD MLOAD DUP3 SSTORE PUSH1 0x1 DUP3 ADD SWAP2 POP PUSH1 0x20 DUP6 ADD SWAP5 POP PUSH1 0x20 DUP2 ADD SWAP1 POP PUSH2 0xE53 JUMP JUMPDEST DUP7 DUP4 LT ISZERO PUSH2 0xE95 JUMPI DUP5 DUP10 ADD MLOAD PUSH2 0xE91 PUSH1 0x1F DUP10 AND DUP3 PUSH2 0xDA4 JUMP JUMPDEST DUP4 SSTORE POP JUMPDEST PUSH1 0x1 PUSH1 0x2 DUP9 MUL ADD DUP9 SSTORE POP POP POP JUMPDEST POP POP POP POP POP POP JUMP INVALID LOG2 PUSH5 0x6970667358 0x22 SLT KECCAK256 0xE9 0xED SWAP10 0x4E SWAP15 PUSH8 0xA2B9580CE62F2410 0xE3 0xEF SWAP15 0xD3 CALLER 0xC7 JUMPDEST PUSH12 0xB49A8A1F4C87E1208B1C6473 PUSH16 0x6C634300081A00330000000000000000 "
		},
		"gasEstimates": {
			"creation": {
				"codeDepositCost": "761600",
				"executionCost": "790",
				"totalCost": "762390"
			},
			"external": {
				"": "194",
				"addStudent(uint256,string,uint256)": "infinite",
				"getAllStudents()": "infinite",
				"getContractBalance()": "378",
				"getStudent(uint256)": "infinite",
				"getStudentCount()": "2440",
				"students(uint256)": "infinite"
			}
		},
		"methodIdentifiers": {
			"addStudent(uint256,string,uint256)": "c1bea1db",
			"getAllStudents()": "e9e30927",
			"getContractBalance()": "6f9fb98a",
			"getStudent(uint256)": "642f9163",
			"getStudentCount()": "41e0c407",
			"students(uint256)": "06ead22e"
		}
	},
	"abi": [
		{
			"anonymous": false,
			"inputs": [
				{
					"indexed": false,
					"internalType": "uint256",
					"name": "id",
					"type": "uint256"
				},
				{
					"indexed": false,
					"internalType": "string",
					"name": "name",
					"type": "string"
				},
				{
					"indexed": false,
					"internalType": "uint256",
					"name": "age",
					"type": "uint256"
				}
			],
			"name": "StudentAdded",
			"type": "event"
		},
		{
			"stateMutability": "payable",
			"type": "fallback"
		},
		{
			"inputs": [
				{
					"internalType": "uint256",
					"name": "_id",
					"type": "uint256"
				},
				{
					"internalType": "string",
					"name": "_name",
					"type": "string"
				},
				{
					"internalType": "uint256",
					"name": "_age",
					"type": "uint256"
				}
			],
			"name": "addStudent",
			"outputs": [],
			"stateMutability": "nonpayable",
			"type": "function"
		},
		{
			"inputs": [],
			"name": "getAllStudents",
			"outputs": [
				{
					"internalType": "uint256[]",
					"name": "",
					"type": "uint256[]"
				},
				{
					"internalType": "string[]",
					"name": "",
					"type": "string[]"
				},
				{
					"internalType": "uint256[]",
					"name": "",
					"type": "uint256[]"
				}
			],
			"stateMutability": "view",
			"type": "function"
		},
		{
			"inputs": [],
			"name": "getContractBalance",
			"outputs": [
				{
					"internalType": "uint256",
					"name": "",
					"type": "uint256"
				}
			],
			"stateMutability": "view",
			"type": "function"
		},
		{
			"inputs": [
				{
					"internalType": "uint256",
					"name": "index",
					"type": "uint256"
				}
			],
			"name": "getStudent",
			"outputs": [
				{
					"internalType": "uint256",
					"name": "",
					"type": "uint256"
				},
				{
					"internalType": "string",
					"name": "",
					"type": "string"
				},
				{
					"internalType": "uint256",
					"name": "",
					"type": "uint256"
				}
			],
			"stateMutability": "view",
			"type": "function"
		},
		{
			"inputs": [],
			"name": "getStudentCount",
			"outputs": [
				{
					"internalType": "uint256",
					"name": "",
					"type": "uint256"
				}
			],
			"stateMutability": "view",
			"type": "function"
		},
		{
			"inputs": [
				{
					"internalType": "uint256",
					"name": "",
					"type": "uint256"
				}
			],
			"name": "students",
			"outputs": [
				{
					"internalType": "uint256",
					"name": "id",
					"type": "uint256"
				},
				{
					"internalType": "string",
					"name": "name",
					"type": "string"
				},
				{
					"internalType": "uint256",
					"name": "age",
					"type": "uint256"
				}
			],
			"stateMutability": "view",
			"type": "function"
		},
		{
			"stateMutability": "payable",
			"type": "receive"
		}
	]
}